:100000000C9433000C9450000C9450000C9450004D
:100010000C9450000C9450000C9450000C94500020
:100020000C9450000C9450000C9450000C94DC0183
:100030000C9450000C9450000C9450000C94500000
:100040000C9450000C9450000C9450000C945000F0
:100050000C945000FB00EB00ED00EF00F100F3000A
:10006000F500F700F90011241FBECFE5D4E0DEBF94
:10007000CDBF10E0A0E6B0E0EAEAF4E002C00590EF
:100080000D92A436B107D9F720E0A4E6B0E001C094
:100090001D92A637B207E1F70E9412020C94530298
:1000A0000C94000098B39B7F98BB98B3916098BB69
:1000B00085BB87EB9BE00197F1F700C0000088B398
:1000C0008E7F88BB87EB9BE00197F1F700C00000B3
:1000D000089598B3956098BB85BB87EB9BE001972B
:1000E000F1F700C0000088B38E7F88BB87EB9BE0F0
:1000F0000197F1F700C00000089587B3876087BBC0
:1001000018BA8FEF84BB15BA87EB9BE00197F1F724
:1001100000C0000088E00E94520087EB9BE001973E
:10012000F1F700C000008CE30E94520087EB9BE0D7
:100130000197F1F700C0000081E00E94520087EBB8
:100140009BE00197F1F700C0000086E00E9452009A
:1001500087EB9BE00197F1F700C000008FE00E9461
:1001600052000895CF93DF93EC0103C021960E94C3
:10017000690088818111FACFDF91CF9108958AB10A
:1001800088698AB980B5866880BD87E689B908958F
:100190009C0180E090E004C0820F931F61507109C0
:1001A00016161706CCF3089520E030E004C0861B35
:1001B000970B2F5F3F4F86179707CCF7C90108951C
:1001C000C1978930910528F4865D9F4FFC010C94FE
:1001D000180280E0089582E0089583E0089584E0A5
:1001E000089585E0089586E0089587E0089588E001
:1001F000089589E0089581E00895BF92CF92DF923B
:10020000EF92FF920F931F93CF93DF93C0E0D0E064
:1002100000E010E017C0FE01EA59FF4F80818B33E8
:10022000B9F09801220F331F000F111F000F111F8B
:10023000000F111F020F131F90E00E94E000080F33
:10024000111D2196E0906400F12CEC16FD061CF7C0
:10025000FE01EA59FF4FB1806E0182E0C80ED11C49
:10026000C0E0D0E019C0F601EA59FF4F8081863224
:10027000B1F09E01220F331FCC0FDD1FCC0FDD1F0D
:10028000CC0FDD1FC20FD31F90E00E94E000C80F0B
:10029000D11DEFEFCE1ADE0AEC14FD0424F781E045
:1002A0000E94520080E80E945200E12CF12CF701DC
:1002B000608170E04AE0C8010E941E02F70180815F
:1002C00090E00E94B2008B2D0E946900F7016081CE
:1002D00070E04AE0CE010E941E02F701808190E0AA
:1002E0000E94B2008DE30E94690080EC0E945200DF
:1002F000FBE2BF1669F0FB1520F08AE2B81651F157
:100300004DC0EDE2BE16A9F0FFE2BF16A9F146C04E
:10031000E12CF12CF701608170E04AE0C8018C0FFC
:100320009D1F0E941E02F701808190E00E94B20092
:1003300039C0E12CF12CF701608170E04AE0C8017E
:100340008C1B9D0B0E941E02F701808190E00E9491
:10035000B20028C0BE01C8010E94C800E12CF12CE7
:10036000F701608170E04AE00E941E02F70180817F
:1003700090E00E94B20016C0BE01C8010E94D400E5
:10038000E12CF12CF701608170E04AE00E941E022E
:10039000F701808190E00E94B20004C080E690E006
:1003A0000E94B200DF91CF911F910F91FF90EF90CB
:1003B000DF90CF90BF9008951F920F920FB60F92CB
:1003C00011242F933F934F935F936F937F938F935A
:1003D0009F93AF93BF93EF93FF939CB1909365006E
:1003E00080916400E82FF0E0EA59FF4F9083963245
:1003F00029F40E94FD001092640003C08F5F809377
:100400006400FF91EF91BF91AF919F918F917F9188
:100410006F915F914F913F912F910F900FBE0F9071
:100420001F9018950E947D000E94BF007894FFCF16
:10043000EE0FFF1F0590F491E02D0994BB274A3081
:1004400031F4992322F4BDE2909581959F4F0C944D
:100450002A02BB27FB015527AA27880F991FAA1F2D
:10046000A41710F0A41B83955051B9F7A05DAA33CF
:1004700008F0A95DA193009779F7B111B19311929A
:10048000CB010C944302DC01FC01672F71917723AF
:10049000E1F7329704C07C916D9370836291AE173F
:0A04A000BF07C8F30895F894FFCFDA
:0404AA004E614E0051
:00000001FF
